:020000040000FA
:0400000047EF02F0D4
:08000800056ED8CF06F0E0CF31
:1000100007F00001E9CF0DF0EACF08F0E1CF09F0D9
:10002000E2CF0AF0D9CF0BF0DACF0CF0F3CF14F017
:10003000F4CF15F0FACF16F000C00FF001C010F0A9
:1000400002C011F003C012F004C013F0F2AA2CEFAA
:1000500000F0F2B461EF00F09DA032EF00F09EB02E
:100060002DEF01F0F2A838EF00F0F2B2EFEF01F05F
:10007000F0A63EEF00F0F0B029EF02F00FC000F064
:1000800010C001F011C002F012C003F013C004F060
:100090000E8E0DC0E9FF08C0EAFF09C0E1FF0AC0EB
:1000A000E2FF0BC0D9FF0CC0DAFF14C0F3FF15C08C
:1000B000F4FF16C0FAFF055007C0E0FF06C0D8FFE6
:1000C00010002650FC0F2BE2040F9AEF00F0926A0A
:1000D000010E896E946A1EC08BFF956A22C08CFF48
:1000E0001ED0926A020E896E946A1FC08BFF956AB9
:1000F00023C08CFF14D0926A040E896E946A20C0CB
:100100008BFF956A24C08CFF0AD0926A080E896E14
:10011000946A21C08BFF956A25C08CFF00D02650C1
:10012000030802E1266A01D0262A939C8A7CF29475
:100130003EEF00F0E824F76AF7364F0FF66E010E37
:10014000F7220A00F550FA6E0800F550F96ECE005D
:10015000E200F6000A01756A766A010E776EDA6AC5
:10016000D96A7A6A6D0E796EEA6A710EE96E7AC0A2
:10017000E2FF79C0E1FF77C078F0D890E550EE0259
:10018000F3507522F4507622782EF7D775C0DEFF33
:1001900076C075F0766AD8B0762A792AD8B47A2AE9
:1001A000772A77500508E0E109EF01F0016A026A59
:1001B000006A036A735002E1725018E0100E746E08
:1001C000D89070367136003603367350035C02E106
:1001D0007250005C07E37250005ED8A003067350B3
:1001E000035ED88001360236742EEAD728EF01F07C
:1001F0001DC070F01CC06FF01BC06EF01AC06DF017
:10020000410E746EC60E736E4E0E726E6D0E716E72
:10021000A2D7390E00241A6E300E01201B6E000E7C
:1002200002201C6E000E03201D6E1CC000F01DC0BD
:1002300001F0026A036A1DC06FF01CC06EF01DC0A1
:1002400071F01CC070F07F0E736EFF0E726EAED731
:1002500000C001F003C002F0000C6BC0CFFF6AC009
:10026000CEFF6850020802E3682A01D0686A69502C
:1002700006E0010A4DE0030AD8B493D0ABD0036A7C
:100280006850270FE96E000E0320EA6EEFCF1EF0D4
:10029000036A68502B0FE96E000E0320EA6EEFCF61
:1002A0001FF0036A68502F0FE96E000E0320EA6EFC
:1002B000EFCF20F0036A6850330FE96E000E032081
:1002C000EA6EEFCF21F0036A6850370FE96E000E37
:1002D0000320EA6EEFCF22F0036A68503B0FE96E0D
:1002E000000E0320EA6EEFCF23F0036A68503F0F41
:1002F000E96E000E0320EA6EEFCF24F0036A685027
:10030000430FE96E000E0320EA6EEFCF25F062D0B6
:10031000036A6850470FE96E000E0320EA6EEFCFC4
:100320001EF0036A68504B0FE96E000E0320EA6E60
:10033000EFCF1FF0036A68504F0FE96E000E0320E5
:10034000EA6EEFCF20F0036A6850530FE96E000E9B
:100350000320EA6EEFCF21F0036A6850570FE96E71
:10036000000E0320EA6EEFCF22F0036A68505B0FA5
:10037000E96E000E0320EA6EEFCF23F0036A6850A7
:100380005F0FE96E000E0320EA6EEFCF24F0036AE0
:100390006850630FE96E000E0320EA6EEFCF25F080
:1003A00019D026DF01C01EF023DF01C01FF020DFBF
:1003B00001C020F01DDF01C021F01ADF01C022F0D2
:1003C00017DF01C023F014DF01C024F011DF01C0EA
:1003D00025F000D0939E8A7E9E903EEF00F06750FD
:1003E000030802E3672A01D0676A6750FB0F1CE22B
:1003F000050F17EF02F00B0E6B6EDC0E6A6E14D059
:10040000850E6B6EEE0E6A6E0FD0AE0E6B6E9E0E8C
:100410006A6E0AD0C20E6B6EF70E6A6E05D0CF0EF2
:100420006B6E2C0E6A6E00D0F2923EEF00F0E82464
:10043000F76AF736490FF66E040EF7220A00F550F8
:10044000FA6E0800F550F96EF60300040A0414046D
:100450001E046950010802E3692A01D0696AF0901C
:100460003EEF00F0EA6A6C0EE96EEF500EE0010E0E
:10047000016E006A002EFED7012EFBD74A0E006ED9
:10048000002EFED700D0EF2EF2D7EAEF02F0F86A86
:10049000D09E0D8EEA6AE96AC150C00B0F09C16E89
:1004A000070EB46E186A196A266AFF0E276E286A4C
:1004B000296A2A6A2B6A2C6E2D6A2E6A2F6A306A84
:1004C000316E326A336A346A356A366E376E386A2C
:1004D000396A3A6A3B6A3C6E3D6A3E6A3F6A406AE4
:1004E000416E426A436A446A456A466E110E476E1F
:1004F000220E486E440E496E880E4A6E110E4B6EE7
:10050000220E4C6E440E4D6E880E4E6E110E4F6EC6
:10051000220E506E440E516E880E526E110E536EA6
:10052000220E546E440E556E880E566E110E576E86
:10053000220E586E440E596E880E5A6E110E5B6E66
:10054000220E5C6E440E5D6E880E5E6E110E5F6E46
:10055000220E606E440E616E880E626E110E636E26
:10056000220E646E440E656E880E666E676A686A57
:10057000696A6A6A6B6AC150C00B0F09C16EC2908A
:100580009698C69A949A94889496010EC66E000E18
:10059000C76ED190C40ED56EB50ECD6E000ECA6E6C
:1005A000000ECB6E070EB46E9250030E006E002E3E
:1005B000FED7B450A19CB56AF28A9D80F288F0867D
:1005C000C00EF212F00E926E000E946E956E0A0E30
:0805D0006C6E48D7FCD7030054
:020000040030CA
:0E00000000C1190E008581000FC00FE00F40F7
:00000001FF
;PIC18F4520
